:020000040000FA
:040000004AEF00F0D3
:100008003D82D9CF1CF0DACF1DF0F3CF1EF0F4CF2C
:100018001FF09EAA31D0000E226E000E216E000E37
:10002800206E3EEC0AF0226E020E2218D8B413D0CD
:1000380016D03EEC0AF0226E21BE06D021500BE10C
:100048000C0E205CD8B007D0010E056E225093EC40
:1000580009F0204A212A030E2218D8A4EAD7340E20
:10006800166E000E176E2B0E186E000E196EC1EC70
:1000780007F0010E0001C66F1FC0F4FF1EC0F3FF9A
:100088001DC0DAFF1CC0D9FF3D921100A7EF09F08F
:100300000001000A006400E803102763616E207793
:1003100065206C65617665206E6F773F21005075B2
:10032000736820427574746F6E004C3A2025750016
:07033000523A202575000080
:10033800000E0001E26F0A0EE16FDCC0DEF0DDC0E6
:10034800DFF0DE1FDF1FDE4BDF2BDA51DE27DB514C
:10035800DF23DE51E15DE251800AE06FDF51800A60
:10036800E059D8B053D0C451C511D8A427D0340E01
:10037800D46F000ED56F2B0ED66F000ED76F55ECCD
:1003880009F000EC0AF00001C44BC52B050E000172
:10039800DF6F0F0EDE6FF10EE82EFED7DE2FFCD7D3
:1003A800DF2FFAD7340E0001D46F000ED56F2B0E55
:1003B800D66F000ED76F8CEC07F059D1340E0001C0
:1003C800D46F000ED56F2B0ED66F000ED76F55EC7D
:1003D80009F000EC0AF00001C44BC52B050E000122
:1003E800DF6F0F0EDE6FF10EE82EFED7DE2FFCD783
:1003F800DF2FFAD7340E0001D46F000ED56F2B0E05
:10040800D66F000ED76F8CEC07F031D1DAC0DEF072
:10041800DBC0DFF00001DE1FDF1FDE4BDF2BDC510E
:10042800DE27DD51DF23DE51E15DE251800AE06F16
:10043800DF51800AE059D8B053D0C451C511D8A4AF
:1004480027D0340ED46F000ED56F2B0ED66F000E4A
:10045800D76F40EC09F0F1EC09F00001C44BC52B53
:10046800050E0001DF6F0F0EDE6FF10EE82EFED7CE
:10047800DE2FFCD7DF2FFAD7340E0001D46F000E21
:10048800D56F2B0ED66F000ED76F8CEC07F0EFD020
:10049800340E0001D46F000ED56F2B0ED66F000EF0
:1004A800D76F40EC09F0F1EC09F00001C44BC52B03
:1004B800050E0001DF6F0F0EDE6FF10EE82EFED77E
:1004C800DE2FFCD7DF2FFAD7340E0001D46F000ED1
:1004D800D56F2B0ED66F000ED76F8CEC07F0C7D0F8
:1004E8000001DDBF61D0DD5104E1C90EDC5DD8A09B
:1004F8005BD0DBBF59D0DB5104E1C90EDA5DD8A06F
:1005080053D0C451C511D8A427D0340ED46F000ECF
:10051800D56F2B0ED66F000ED76F6AEC09F00FEC73
:100528000AF00001C44BC52B050E0001DF6F0F0E4A
:10053800DE6FF10EE82EFED7DE2FFCD7DF2FFAD7BD
:10054800340E0001D46F000ED56F2B0ED66F000E3F
:10055800D76F8CEC07F08BD0340E0001D46F000EEF
:10056800D56F2B0ED66F000ED76F6AEC09F00FEC23
:100578000AF00001C44BC52B050E0001DF6F0F0EFA
:10058800DE6FF10EE82EFED7DE2FFCD7DF2FFAD76D
:10059800340E0001D46F000ED56F2B0ED66F000EEF
:1005A800D76F8CEC07F063D00001DDBF06D0DD51BA
:1005B8005EE1640EDC5DD8B05AD0DBBF06D0DB51FB
:1005C80056E1640EDA5DD8B052D0C451C511D8A432
:1005D80027D0340ED46F000ED56F2B0ED66F000EB9
:1005E800D76F55EC09F000EC0AF00001C44BC52B9D
:1005F800050E0001DF6F0F0EDE6FF10EE82EFED73D
:10060800DE2FFCD7DF2FFAD7340E0001D46F000E8F
:10061800D56F2B0ED66F000ED76F8CEC07F027D056
:10062800340E0001D46F000ED56F2B0ED66F000E5E
:10063800D76F55EC09F000EC0AF00001C44BC52B4C
:10064800050E0001DF6F0F0EDE6FF10EE82EFED7EC
:10065800DE2FFCD7DF2FFAD7340E0001D46F000E3F
:10066800D56F2B0ED66F000ED76F8CEC07F0340EBB
:100678000001D46F000ED56F2B0ED66F000ED76F0A
:100688008CEC07F01200000EB86E000EB96E720EF8
:10069800D36ED3A4FED7ACEC06F039EC0AF01EEC0E
:1006A8000AF0F6EC07F0E0EC09F0340E0001D46F24
:1006B800000ED56F2B0ED66F000ED76F8CEC07F09F
:1006C8009486E70E0001CB6F000ECC6F1E0ECD6F27
:1006D800030ECE6FCD51CE11D8A4000ECF6F03EC10
:1006E80006F0E70E296E000E2A6EFCEC08F0020EEA
:1006F80014EC09F0E70E0001CB6F000ECC6F0B0E67
:10070800CD6F030ECE6FCD51CE11D8A4000ECF6F92
:1007180003EC06F0E70E296E000E2A6EFCEC08F0DA
:1007280082A6FED7020E0001E46F040EE36FBA0E34
:10073800E82EFED7E32FFCD7E42FFAD700F0000EFF
:10074800276E010E7FEC09F0000E0001C66F000E47
:10075800F76FC651D8A430D0FA0E236E000E246E5F
:10076800F80E256E000E266E6FEC08F0F8C023F028
:10077800F9C024F0000E266E640E256E21EC08F0F8
:1007880023C0F8F024C0F9F0FAC023F0FBC024F02D
:10079800000E266E640E256E21EC08F023C0FAF0D8
:1007A80024C0FBF0FAC0DAF0FBC0DBF0F8C0DCF0E4
:1007B800F9C0DDF09CEC01F00001C605D8A4C9D74A
:1007C800F751D8A4C6D7000EFC6F84D0FC51E36F54
:1007D800E46BE31FE41FE34BE42BC451E327C5514B
:1007E800E423D890E337E437600EE325D96E000E92
:1007F800E421DA6EDE50DE10D8A40BD0340ED46FAC
:10080800000ED56F2B0ED66F000ED76F2BEC09F0AC
:1008180048D00001FC51E36FE46BE31FE41FE34B96
:10082800E42BC451E327C551E423D890E337E437D8
:10083800600EE325D96E000EE421DA6EDE04DE10C8
:10084800D8A40BD0340ED46F000ED56F2B0ED66FF4
:10085800000ED76F40EC09F024D00001FC51E36F83
:10086800E46BE31FE41FE34BE42BC451E327C551BA
:10087800E423D890E337E437600EE325D96E000E01
:10088800E421DA6E020EDE18DE10D8A40AD0340E87
:10089800D46F000ED56F2B0ED66F000ED76F55ECA8
:1008A80009F0050E0001E46F0F0EE36FF10EE82E5C
:1008B800FED7E32FFCD7E42FFAD7340E0001D46F0C
:1008C800000ED56F2B0ED66F000ED76F8CEC07F08D
:1008D8000001FC2BFC51E36FE46BC451E35DC5518F
:1008E800E459D8A073D7010E33D720EE01F0295070
:1008F800D9262A50DA22DF50D8B437D020EE07F0B4
:100908002950D9262A50DA22DECFCFF0DDCFD0F019
:1009180029C0D9FF2AC0DAFFDF500001D16FD151B9
:10092800236E246A20EE07F02950D9262A50DA22AD
:10093800DECF25F0DDCF26F0BAEC09F023C0C7F0F2
:1009480024C0C8F0000E0001CA6F640EC96F07EC1E
:1009580007F00001C71FC81FC74BC82BCF51C725B9
:10096800D26FD051C821D36F25D029C0D9FF2AC052
:10097800DAFFDF500001CF6FCF51236E246A20EEDB
:1009880007F02950D9262A50DA22DECF25F0DDCF0C
:1009980026F0BAEC09F023C0C7F024C0C8F0000E56
:1009A8000001CA6F640EC96F07EC07F0C7C0D2F028
:1009B800C8C0D3F0D2C0CFF0D3C0D0F00001D890D7
:1009C800CF37D037D890CF37D037CFC0D2F0D0C0BC
:1009D800D3F020EE02F02950D9262A50DA22DECFB1
:1009E800CFF0DDCFD0F0CFC0D9FFD0C0DAFFD2C072
:1009F800DFFF20EE04F02950D9262A50DA22DECF74
:100A0800CFF0DDCFD0F0CFC0D9FFD0C0DAFFD351BF
:100A18003F0BDF6E20EE01F02950D9262A50DA224A
:100A2800DF50D8B415D020EE06F02950D9262A5028
:100A3800DA22DF50CF6F010ED06FCF2B02D0D890C3
:100A4800D037CF2FFCD70001D0518A108A6E120000
:100A580020EE06F02950D9262A50DA22DF50CF6F2F
:100A6800010ED06FCF2B02D0D890D037CF2FFCD724
:100A78000001D051FF0A8A148A6E120020EE01F09C
:100A88000F50D9261050DA22DF50D8B434D020EED7
:100A980007F00F50D9261050DA22DECF11F0DDCF43
:100AA80012F00FC0D9FF10C0DAFFDF50136E1350D9
:100AB800016E026A20EE07F00F50D9261050DA2294
:100AC800DECF03F0DDCF04F0CDEC09F001C007F074
:100AD80002C008F0000E0A6E640E096E4AEC07F0B8
:100AE800071E081E074A082A11500724146E1250C0
:100AF8000820156E23D00FC0D9FF10C0DAFFDF50D1
:100B0800116E1150016E026A20EE07F00F50D926BF
:100B18001050DA22DECF03F0DDCF04F0CDEC09F07F
:100B280001C007F002C008F0000E0A6E640E096EDC
:100B38004AEC07F007C014F008C015F014C011F013
:100B480015C012F0D89011361236D89011361236D8
:100B580011C014F012C015F020EE02F00F50D92683
:100B68001050DA22DECF11F0DDCF12F011C0D9FF1C
:100B780012C0DAFF14C0DFFF20EE04F00F50D926B0
:100B88001050DA22DECF11F0DDCF12F011C0D9FFFC
:100B980012C0DAFF15503F0BDF6E20EE01F00F5048
:100BA800D9261050DA22DF50D8B414D020EE06F03F
:100BB8000F50D9261050DA22DF50116E010E126E36
:100BC800112A02D0D8901236112EFCD712508A1052
:100BD8008A6E120020EE06F00F50D9261050DA2245
:100BE800DF50116E010E126E112A02D0D890123603
:100BF800112EFCD71250FF0A8A148A6E1200D00EEA
:100C08000001D66F000ED76F86D0250EDB19D8B439
:100C180004D006D0CB4BCC2B7ED0000ED56F0AD09B
:100C2800CBC0D9FFCCC0DAFFDBC0DFFFF3D7C00EE3
:100C3800D5131BD0CDC0D2F0CEC0D3F0CFC0D4F0E6
:100C4800CD2B000ECE23CF23D2C0F6FFD3C0F7FFA3
:100C5800D4C0F8FF0800F5CFDBF0DB51000AD8B4A8
:100C680070D0750AD8B4E3D7DBD7D6C0D9FFD7C0C0
:100C7800DAFFDECFD8F0DDCFD9F0020ED627000E8E
:100C8800D723010EDB6F11D0DB51020D010EF324C7
:100C9800F66E030EF420F76E0900F550D85D0900D2
:100CA800F550D959D8A005D0DB2B050EDB19D8A4EF
:100CB800EBD7DBC0DAF02BD0DA51020D010EF324AA
:100CC800F66E030EF420F76E0900F5CF25F00A0042
:100CD800F5CF26F0D8C023F0D9C024F021EC08F0D5
:100CE80023C0C7F024C0C8F0000E0001CA6F0A0E66
:100CF800C96FB9EC08F00001C751300FDB6FCBC0EA
:100D0800D9FFCCC0DAFFDBC0DFFFCB4BCC2BDA0737
:100D1800DA29D8A4D1D7CDC0D2F0CEC0D3F0CFC075
:100D2800D4F0CD2B000ECE23CF23D2C0F6FFD3C0F4
:100D3800F7FFD4C0F8FF0800F5CFDBF0DB51D8A4EB
:100D480064D7CBC0D9FFCCC0DAFF000EDF6E12002B
:100D5800000E8B6E000E896E000E8C6E000E946E67
:100D6800000E956E000E926E0A0EE82EFED7030E48
:100D78004AEC08F00D0E296EFC0EE82EFED7292E3F
:100D8800FCD7030E4AEC08F0850EE82EFED700F0DB
:100D9800030E4AEC08F0210EE82EFED700F0020EF2
:100DA8004AEC08F0000E276E280E7FEC09F0210EA1
:100DB800E82EFED700F0000E276E080E7FEC09F033
:100DC800210EE82EFED700F0000E276E010E7FECF4
:100DD80009F00D0E296EFC0EE82EFED7292EFCD741
:100DE800000E276E060E7FEC09F0210EE82EFED7C6
:100DF80000F0000E276E0E0E7FEC09F0210EE82E93
:100E0800FED700F01200000E0001CC6FCAAF06D06A
:100E1800C96DCA1FD8B0CA2B010ECC6FC8AF06D097
:100E2800C76DC81FD8B0C82B010ECC1B000ECE6FE3
:100E3800000ECD6FC951CA11D8B41CD0010ECB6FAA
:100E480004D0D890C937CA37CB2BCAAFFAD7D890B5
:100E5800CD37CE37C951C75DCA51C859D8A005D0BA
:100E6800C951C75FCA51C85BCD81D890CA33C9334D
:100E7800CB2FEDD7CC51D8B404D0CD6DCE1FD8B080
:100E8800CE2BCDC0C7F0CEC0C8F01200000E0C6E3D
:100E98000AAE06D0096C0A1ED8B00A2A010E0C6EDA
:100EA80008AE06D0076C081ED8B0082A010E0C1A26
:100EB800000E0E6E000E0D6E09500A10D8B41CD02C
:100EC800010E0B6E04D0D89009360A360B2A0AAEEA
:100ED800FAD7D8900D360E360950075C0A500858D4
:100EE800D8A005D00950075E0A50085A0D80D8903E
:100EF8000A3209320B2EEDD70C50D8B404D00D6C41
:100F08000E1ED8B00E2A0DC007F00EC008F0120051
:100F1800010E356E000E346ED4C029F0D5C02AF00B
:100F280079EC04F0010E2C6E000E2B6ED6C029F061
:100F3800D7C02AF079EC04F0030E0001D96F080E2F
:100F4800D86F770EE82EFED7D82FFCD7D92FFAD72F
:100F5800010E356E000E346ED4C029F0D5C02AF0CB
:100F680079EC04F0010E2C6E000E2B6ED6C029F021
:100F7800D7C02AF079EC04F01200010E356E000E8D
:100F8800346E16C00FF017C010F042EC05F0010ED9
:100F98002C6E000E2B6E18C00FF019C010F042EC2A
:100FA80005F0030E1B6E080E1A6E770EE82EFED79C
:100FB8001A2EFCD71B2EFAD700F0010E356E000E44
:100FC800346E16C00FF017C010F042EC05F0010E99
:100FD8002C6E000E2B6E18C00FF019C010F042ECEA
:100FE80005F01200000E266EC70E256EDBEC08F029
:100FF800000E346E010E356E790E366E0F0E376E9A
:10100800780E386E0F0E396E000E3A6E25C03BF022
:1010180026C03CF0000E2B6E010E2C6E770E2D6E46
:101028000F0E2E6E760E2F6E0F0E306E020E316E74
:1010380025C032F026C033F01200000E286E000ED4
:10104800276E25502610D8B41CD0010E296E04D066
:10105800D89025362636292A26AEFAD7D8902736AC
:1010680028362550235C26502458D8A005D0255072
:10107800235E2650245A2780D89026322532292EDE
:10108800EDD727C023F028C024F01200266E8CCF9D
:1010980023F0FC0E23162640E8423F0B030B2310D7
:1010A8008C6E8CCF23F0F90E231626C024F0030E85
:1010B8002416D89024342310256ED8902536D8903D
:1010C8002536D89025348B6E2BEC0AF0030EE82ECB
:1010D800FED700F01200685069CF27F0286A27C0B1
:1010E80028F0276A2712000E281223C0D9FF24C02F
:1010F800DAFF27C0DEFF28C0DDFF665067CF27F084
:10110800286A27C028F0276A2712000E281225C04F
:10111800D9FF26C0DAFF27C0DEFF28C0DDFF120096
:10112800046E8CCF01F0FC0E01160440E8423F0B20
:10113800030B01108C6E8CCF01F0F90E011604C060
:1011480002F0030E0216D89002340110036ED890F4
:101158000336D8900336D89003348B6E32EC0AF0FD
:10116800030EE82EFED700F012000001C951CA1183
:10117800D8B418D0010E2A6E04D0D890C937CA370F
:101188002A2ACAAFFAD7C951C75DCA51C859D8A0C7
:1011980004D0C951C75FCA51C85BD890CA33C93394
:1011A8002A2EF1D7C7C0C7F0C8C0C8F01200939064
:1011B8009392939493960C0E7F6E800E7E6E6F0EB4
:1011C8006F6E000E6E6EC70E7B6E000E7A6E000E8E
:1011D800246E630E236E2344E846FC0B796E000EE2
:1011E800786E2344E846FC0B776E000E766E12008C
:1011F8000FD0010E276E29C0D9FF2AC0DAFFDF50B1
:101208007FEC09F0294A2A2A210EE82EFED700F0A1
:1012180029C0D9FF2AC0DAFFDF50D8B41200E9D7B5
:10122800296E2904D8A405D0000E276E800E7FEC05
:1012380009F0020E2918D8A405D0000E276EC00E9A
:101248007FEC09F0210EE82EFED700F01200000E08
:10125800356E490E346ED4C029F0D5C02AF079EC29
:1012680004F0000E2C6E4A0E2B6ED6C029F0D7C0A3
:101278002AF079EC04F01200010E356E3C0E346E43
:10128800D4C029F0D5C02AF079EC04F0000E2C6EF9
:10129800320E2B6ED6C029F0D7C02AF079EC04F0B4
:1012A8001200000E356E320E346ED4C029F0D5C04F
:1012B8002AF079EC04F0010E2C6E3C0E2B6ED6C091
:1012C80029F0D7C02AF079EC04F01200010E356E2F
:1012D800490E346ED4C029F0D5C02AF079EC04F058
:1012E800010E2C6E470E2B6ED6C029F0D7C02AF0FF
:1012F80079EC04F01200286E27B002D0899C01D046
:10130800898C28380F0B0F0B4AEC08F028500F0B6C
:101318004AEC08F0210EE82EFED700F01200066E07
:1013280005B002D0899C01D0898C06380F0B0F0BB1
:1013380094EC08F006500F0B94EC08F0210EE82E00
:10134800FED700F0120000EE60F0670EEE6AE806C5
:10135800FDE100EE2BF0120EEE6AE806FDE13D908D
:101368003D92000EF86E000147EF03F0235025026E
:10137800F3CF27F0F4CF28F023502602F350282685
:1013880024502502F350282627C023F028C024F033
:10139800120001500302F3CF05F0F4CF06F001501C
:1013A8000402F350062602500302F350062605C035
:1013B80001F006C002F01200000E8B6E948EF20E41
:1013C800D36ED3A4FED7CD0EAF6E000EB06EAA8634
:1013D800AC84AB88AB8EAC8A1200D8900001C435BF
:1013E800D96EC535DA6E600ED926000EDA22020EE5
:1013F800DE6E000EDD6E1200D8900001C435D96E85
:10140800C535DA6E600ED926000EDA22010EDE6EC0
:10141800000EDD6E1200D8900001C435D96EC535B6
:10142800DA6E600ED926000EDA22000EDE6E000E8D
:10143800DD6E1200000E896E0C0E926E460E636E03
:10144800460E626E090EB76E180E606E12008B8023
:10145800030EE82EFED700F08B9012008B80030E4F
:10146800E82EFED700F08B901200D08EF28EF28C10
:0C1478009D8A12009EAAFED7AE50120002
:020000040020DA
:08000000FFFFFFFFFFFFFFFF00
:020000040030CA
:0E000000FFC80F3F3C1D81FF0FC00FE00F40F7
:00000001FF
